{
  "contractName": "TokenSwap",
  "abi": [
    {
      "inputs": [],
      "stateMutability": "nonpayable",
      "type": "constructor"
    },
    {
      "inputs": [],
      "name": "owner",
      "outputs": [
        {
          "internalType": "address",
          "name": "",
          "type": "address"
        }
      ],
      "stateMutability": "view",
      "type": "function"
    },
    {
      "inputs": [
        {
          "internalType": "address",
          "name": "token1",
          "type": "address"
        },
        {
          "internalType": "address",
          "name": "token2",
          "type": "address"
        },
        {
          "internalType": "uint256",
          "name": "amount",
          "type": "uint256"
        }
      ],
      "name": "swapTokens",
      "outputs": [],
      "stateMutability": "nonpayable",
      "type": "function"
    },
    {
      "inputs": [
        {
          "internalType": "address",
          "name": "token",
          "type": "address"
        },
        {
          "internalType": "uint256",
          "name": "amount",
          "type": "uint256"
        }
      ],
      "name": "withdraw",
      "outputs": [],
      "stateMutability": "nonpayable",
      "type": "function"
    }
  ],
  "bytecode": "0x608060405234801561000f575f80fd5b50335f806101000a81548173ffffffffffffffffffffffffffffffffffffffff021916908373ffffffffffffffffffffffffffffffffffffffff1602179055506108598061005c5f395ff3fe608060405234801561000f575f80fd5b506004361061003f575f3560e01c80638da5cb5b14610043578063ec6cc0cc14610061578063f3fef3a31461007d575b5f80fd5b61004b610099565b6040516100589190610461565b60405180910390f35b61007b600480360381019061007691906104db565b6100bc565b005b6100976004803603810190610092919061052b565b6102f6565b005b5f8054906101000a900473ffffffffffffffffffffffffffffffffffffffff1681565b808373ffffffffffffffffffffffffffffffffffffffff166370a08231336040518263ffffffff1660e01b81526004016100f69190610461565b602060405180830381865afa158015610111573d5f803e3d5ffd5b505050506040513d601f19601f82011682018060405250810190610135919061057d565b1015610176576040517f08c379a000000000000000000000000000000000000000000000000000000000815260040161016d90610602565b60405180910390fd5b8273ffffffffffffffffffffffffffffffffffffffff166323b872dd3330846040518463ffffffff1660e01b81526004016101b39392919061062f565b6020604051808303815f875af11580156101cf573d5f803e3d5ffd5b505050506040513d601f19601f820116820180604052508101906101f39190610699565b610232576040517f08c379a00000000000000000000000000000000000000000000000000000000081526004016102299061070e565b60405180910390fd5b5f8190508273ffffffffffffffffffffffffffffffffffffffff1663a9059cbb33836040518363ffffffff1660e01b815260040161027192919061072c565b6020604051808303815f875af115801561028d573d5f803e3d5ffd5b505050506040513d601f19601f820116820180604052508101906102b19190610699565b6102f0576040517f08c379a00000000000000000000000000000000000000000000000000000000081526004016102e79061079d565b60405180910390fd5b50505050565b5f8054906101000a900473ffffffffffffffffffffffffffffffffffffffff1673ffffffffffffffffffffffffffffffffffffffff163373ffffffffffffffffffffffffffffffffffffffff1614610383576040517f08c379a000000000000000000000000000000000000000000000000000000000815260040161037a90610805565b60405180910390fd5b8173ffffffffffffffffffffffffffffffffffffffff1663a9059cbb5f8054906101000a900473ffffffffffffffffffffffffffffffffffffffff16836040518363ffffffff1660e01b81526004016103dd92919061072c565b6020604051808303815f875af11580156103f9573d5f803e3d5ffd5b505050506040513d601f19601f8201168201806040525081019061041d9190610699565b505050565b5f73ffffffffffffffffffffffffffffffffffffffff82169050919050565b5f61044b82610422565b9050919050565b61045b81610441565b82525050565b5f6020820190506104745f830184610452565b92915050565b5f80fd5b61048781610441565b8114610491575f80fd5b50565b5f813590506104a28161047e565b92915050565b5f819050919050565b6104ba816104a8565b81146104c4575f80fd5b50565b5f813590506104d5816104b1565b92915050565b5f805f606084860312156104f2576104f161047a565b5b5f6104ff86828701610494565b935050602061051086828701610494565b9250506040610521868287016104c7565b9150509250925092565b5f80604083850312156105415761054061047a565b5b5f61054e85828601610494565b925050602061055f858286016104c7565b9150509250929050565b5f81519050610577816104b1565b92915050565b5f602082840312156105925761059161047a565b5b5f61059f84828501610569565b91505092915050565b5f82825260208201905092915050565b7f496e73756666696369656e742062616c616e63650000000000000000000000005f82015250565b5f6105ec6014836105a8565b91506105f7826105b8565b602082019050919050565b5f6020820190508181035f830152610619816105e0565b9050919050565b610629816104a8565b82525050565b5f6060820190506106425f830186610452565b61064f6020830185610452565b61065c6040830184610620565b949350505050565b5f8115159050919050565b61067881610664565b8114610682575f80fd5b50565b5f815190506106938161066f565b92915050565b5f602082840312156106ae576106ad61047a565b5b5f6106bb84828501610685565b91505092915050565b7f5472616e73666572206661696c656400000000000000000000000000000000005f82015250565b5f6106f8600f836105a8565b9150610703826106c4565b602082019050919050565b5f6020820190508181035f830152610725816106ec565b9050919050565b5f60408201905061073f5f830185610452565b61074c6020830184610620565b9392505050565b7f53776170206661696c65640000000000000000000000000000000000000000005f82015250565b5f610787600b836105a8565b915061079282610753565b602082019050919050565b5f6020820190508181035f8301526107b48161077b565b9050919050565b7f4f6e6c79206f776e65722063616e2077697468647261770000000000000000005f82015250565b5f6107ef6017836105a8565b91506107fa826107bb565b602082019050919050565b5f6020820190508181035f83015261081c816107e3565b905091905056fea2646970667358221220bb11644424afb1dcc56eaa0909358b19c1437137d5a8c1d975cc393519b4b05564736f6c63430008150033",
  "immutableReferences": {},
  "source": "// SPDX-License-Identifier: MIT\r\npragma solidity ^0.8.0;\r\n\r\ninterface IERC20 {\r\n    function transfer(address recipient, uint256 amount) external returns (bool);\r\n    function transferFrom(address sender, address recipient, uint256 amount) external returns (bool);\r\n    function balanceOf(address account) external view returns (uint256);\r\n}\r\n\r\ncontract TokenSwap {\r\n    address public owner;\r\n\r\n    constructor() {\r\n        owner = msg.sender;\r\n    }\r\n\r\n    function swapTokens(address token1, address token2, uint256 amount) public {\r\n        require(IERC20(token1).balanceOf(msg.sender) >= amount, \"Insufficient balance\");\r\n        require(IERC20(token1).transferFrom(msg.sender, address(this), amount), \"Transfer failed\");\r\n        uint256 amountToReceive = amount; // Implement actual swapping logic\r\n        require(IERC20(token2).transfer(msg.sender, amountToReceive), \"Swap failed\");\r\n    }\r\n\r\n    function withdraw(address token, uint256 amount) public {\r\n        require(msg.sender == owner, \"Only owner can withdraw\");\r\n        IERC20(token).transfer(owner, amount);\r\n    }\r\n}\r\n",
  "sourcePath": "C:\\xampp\\htdocs\\Cradle\\token-swap\\contracts\\Tokenswap.sol",
  "compiler": {
    "name": "solc",
    "version": "0.8.21+commit.d9974bed.Emscripten.clang"
  },
  "schemaVersion": "3.4.16",
  "updatedAt": "2024-08-03T14:16:11.905Z",
  "devdoc": {
    "kind": "dev",
    "methods": {},
    "version": 1
  },
  "userdoc": {
    "kind": "user",
    "methods": {},
    "version": 1
  }
}